{
  "_format": "hh-sol-artifact-1",
  "contractName": "LendingPlatform",
  "sourceName": "contracts/LendingPlatform.sol",
  "abi": [
    {
      "inputs": [],
      "stateMutability": "nonpayable",
      "type": "constructor"
    },
    {
      "anonymous": false,
      "inputs": [
        {
          "indexed": true,
          "internalType": "uint256",
          "name": "loanId",
          "type": "uint256"
        },
        {
          "indexed": true,
          "internalType": "address",
          "name": "lender",
          "type": "address"
        },
        {
          "indexed": false,
          "internalType": "uint256",
          "name": "amount",
          "type": "uint256"
        }
      ],
      "name": "InvestmentMade",
      "type": "event"
    },
    {
      "anonymous": false,
      "inputs": [
        {
          "indexed": true,
          "internalType": "uint256",
          "name": "loanId",
          "type": "uint256"
        },
        {
          "indexed": true,
          "internalType": "address",
          "name": "borrower",
          "type": "address"
        },
        {
          "indexed": false,
          "internalType": "uint256",
          "name": "amount",
          "type": "uint256"
        }
      ],
      "name": "LoanCreated",
      "type": "event"
    },
    {
      "anonymous": false,
      "inputs": [
        {
          "indexed": true,
          "internalType": "uint256",
          "name": "loanId",
          "type": "uint256"
        }
      ],
      "name": "LoanFunded",
      "type": "event"
    },
    {
      "anonymous": false,
      "inputs": [
        {
          "indexed": true,
          "internalType": "uint256",
          "name": "loanId",
          "type": "uint256"
        }
      ],
      "name": "LoanRepaid",
      "type": "event"
    },
    {
      "anonymous": false,
      "inputs": [
        {
          "indexed": true,
          "internalType": "bytes32",
          "name": "propertyHash",
          "type": "bytes32"
        },
        {
          "indexed": false,
          "internalType": "string",
          "name": "propertyAddress",
          "type": "string"
        },
        {
          "indexed": true,
          "internalType": "address",
          "name": "owner",
          "type": "address"
        }
      ],
      "name": "PropertyAdded",
      "type": "event"
    },
    {
      "anonymous": false,
      "inputs": [
        {
          "indexed": true,
          "internalType": "bytes32",
          "name": "propertyHash",
          "type": "bytes32"
        }
      ],
      "name": "PropertyVerified",
      "type": "event"
    },
    {
      "inputs": [
        {
          "internalType": "string",
          "name": "_propertyAddress",
          "type": "string"
        }
      ],
      "name": "addProperty",
      "outputs": [],
      "stateMutability": "nonpayable",
      "type": "function"
    },
    {
      "inputs": [],
      "name": "admin",
      "outputs": [
        {
          "internalType": "address",
          "name": "",
          "type": "address"
        }
      ],
      "stateMutability": "view",
      "type": "function"
    },
    {
      "inputs": [
        {
          "internalType": "uint256",
          "name": "",
          "type": "uint256"
        }
      ],
      "name": "allLoanIds",
      "outputs": [
        {
          "internalType": "uint256",
          "name": "",
          "type": "uint256"
        }
      ],
      "stateMutability": "view",
      "type": "function"
    },
    {
      "inputs": [
        {
          "components": [
            {
              "internalType": "uint256",
              "name": "id",
              "type": "uint256"
            },
            {
              "internalType": "address",
              "name": "borrower",
              "type": "address"
            },
            {
              "internalType": "uint256",
              "name": "amount",
              "type": "uint256"
            },
            {
              "internalType": "uint256",
              "name": "fundedAmount",
              "type": "uint256"
            },
            {
              "internalType": "uint256",
              "name": "interestRate",
              "type": "uint256"
            },
            {
              "internalType": "uint256",
              "name": "duration",
              "type": "uint256"
            },
            {
              "internalType": "bool",
              "name": "isActive",
              "type": "bool"
            },
            {
              "internalType": "bytes32",
              "name": "propertyHash",
              "type": "bytes32"
            },
            {
              "internalType": "string",
              "name": "propertyAddress",
              "type": "string"
            },
            {
              "internalType": "bool",
              "name": "isVerified",
              "type": "bool"
            }
          ],
          "internalType": "struct LendingPlatform.Loan",
          "name": "loan",
          "type": "tuple"
        }
      ],
      "name": "calculateTotalRepayment",
      "outputs": [
        {
          "internalType": "uint256",
          "name": "",
          "type": "uint256"
        }
      ],
      "stateMutability": "pure",
      "type": "function"
    },
    {
      "inputs": [
        {
          "internalType": "uint256",
          "name": "_amount",
          "type": "uint256"
        },
        {
          "internalType": "uint256",
          "name": "_interestRate",
          "type": "uint256"
        },
        {
          "internalType": "uint256",
          "name": "_duration",
          "type": "uint256"
        },
        {
          "internalType": "string",
          "name": "_propertyAddress",
          "type": "string"
        }
      ],
      "name": "createLoan",
      "outputs": [],
      "stateMutability": "nonpayable",
      "type": "function"
    },
    {
      "inputs": [],
      "name": "getAllLoans",
      "outputs": [
        {
          "components": [
            {
              "internalType": "uint256",
              "name": "id",
              "type": "uint256"
            },
            {
              "internalType": "address",
              "name": "borrower",
              "type": "address"
            },
            {
              "internalType": "uint256",
              "name": "amount",
              "type": "uint256"
            },
            {
              "internalType": "uint256",
              "name": "fundedAmount",
              "type": "uint256"
            },
            {
              "internalType": "uint256",
              "name": "interestRate",
              "type": "uint256"
            },
            {
              "internalType": "uint256",
              "name": "duration",
              "type": "uint256"
            },
            {
              "internalType": "bool",
              "name": "isActive",
              "type": "bool"
            },
            {
              "internalType": "bytes32",
              "name": "propertyHash",
              "type": "bytes32"
            },
            {
              "internalType": "string",
              "name": "propertyAddress",
              "type": "string"
            },
            {
              "internalType": "bool",
              "name": "isVerified",
              "type": "bool"
            }
          ],
          "internalType": "struct LendingPlatform.Loan[]",
          "name": "",
          "type": "tuple[]"
        }
      ],
      "stateMutability": "view",
      "type": "function"
    },
    {
      "inputs": [
        {
          "internalType": "address",
          "name": "_user",
          "type": "address"
        }
      ],
      "name": "getUserLoans",
      "outputs": [
        {
          "components": [
            {
              "internalType": "uint256",
              "name": "id",
              "type": "uint256"
            },
            {
              "internalType": "address",
              "name": "borrower",
              "type": "address"
            },
            {
              "internalType": "uint256",
              "name": "amount",
              "type": "uint256"
            },
            {
              "internalType": "uint256",
              "name": "fundedAmount",
              "type": "uint256"
            },
            {
              "internalType": "uint256",
              "name": "interestRate",
              "type": "uint256"
            },
            {
              "internalType": "uint256",
              "name": "duration",
              "type": "uint256"
            },
            {
              "internalType": "bool",
              "name": "isActive",
              "type": "bool"
            },
            {
              "internalType": "bytes32",
              "name": "propertyHash",
              "type": "bytes32"
            },
            {
              "internalType": "string",
              "name": "propertyAddress",
              "type": "string"
            },
            {
              "internalType": "bool",
              "name": "isVerified",
              "type": "bool"
            }
          ],
          "internalType": "struct LendingPlatform.Loan[]",
          "name": "",
          "type": "tuple[]"
        }
      ],
      "stateMutability": "view",
      "type": "function"
    },
    {
      "inputs": [
        {
          "internalType": "uint256",
          "name": "_loanId",
          "type": "uint256"
        }
      ],
      "name": "invest",
      "outputs": [],
      "stateMutability": "payable",
      "type": "function"
    },
    {
      "inputs": [
        {
          "internalType": "uint256",
          "name": "",
          "type": "uint256"
        }
      ],
      "name": "loans",
      "outputs": [
        {
          "internalType": "uint256",
          "name": "id",
          "type": "uint256"
        },
        {
          "internalType": "address",
          "name": "borrower",
          "type": "address"
        },
        {
          "internalType": "uint256",
          "name": "amount",
          "type": "uint256"
        },
        {
          "internalType": "uint256",
          "name": "fundedAmount",
          "type": "uint256"
        },
        {
          "internalType": "uint256",
          "name": "interestRate",
          "type": "uint256"
        },
        {
          "internalType": "uint256",
          "name": "duration",
          "type": "uint256"
        },
        {
          "internalType": "bool",
          "name": "isActive",
          "type": "bool"
        },
        {
          "internalType": "bytes32",
          "name": "propertyHash",
          "type": "bytes32"
        },
        {
          "internalType": "string",
          "name": "propertyAddress",
          "type": "string"
        },
        {
          "internalType": "bool",
          "name": "isVerified",
          "type": "bool"
        }
      ],
      "stateMutability": "view",
      "type": "function"
    },
    {
      "inputs": [],
      "name": "nextLoanId",
      "outputs": [
        {
          "internalType": "uint256",
          "name": "",
          "type": "uint256"
        }
      ],
      "stateMutability": "view",
      "type": "function"
    },
    {
      "inputs": [
        {
          "internalType": "bytes32",
          "name": "",
          "type": "bytes32"
        }
      ],
      "name": "properties",
      "outputs": [
        {
          "internalType": "bytes32",
          "name": "propertyHash",
          "type": "bytes32"
        },
        {
          "internalType": "string",
          "name": "propertyAddress",
          "type": "string"
        },
        {
          "internalType": "bool",
          "name": "isVerified",
          "type": "bool"
        },
        {
          "internalType": "address",
          "name": "owner",
          "type": "address"
        }
      ],
      "stateMutability": "view",
      "type": "function"
    },
    {
      "inputs": [
        {
          "internalType": "uint256",
          "name": "_loanId",
          "type": "uint256"
        }
      ],
      "name": "repayLoan",
      "outputs": [],
      "stateMutability": "payable",
      "type": "function"
    },
    {
      "inputs": [
        {
          "internalType": "address",
          "name": "",
          "type": "address"
        },
        {
          "internalType": "uint256",
          "name": "",
          "type": "uint256"
        }
      ],
      "name": "userLoans",
      "outputs": [
        {
          "internalType": "uint256",
          "name": "",
          "type": "uint256"
        }
      ],
      "stateMutability": "view",
      "type": "function"
    },
    {
      "inputs": [
        {
          "internalType": "bytes32",
          "name": "_propertyHash",
          "type": "bytes32"
        }
      ],
      "name": "verifyProperty",
      "outputs": [],
      "stateMutability": "nonpayable",
      "type": "function"
    }
  ],
  "bytecode": "0x608060405234801561001057600080fd5b5033600560006101000a81548173ffffffffffffffffffffffffffffffffffffffff021916908373ffffffffffffffffffffffffffffffffffffffff1602179055506127cf806100616000396000f3fe6080604052600436106100dd5760003560e01c8063ab7b1c891161007f578063d8bad5bd11610059578063d8bad5bd146102a5578063e1ec3c68146102e2578063f718e94814610328578063f851a44014610365576100dd565b8063ab7b1c8914610220578063b48cc6e51461023c578063bd15627314610265576100dd565b80632afcf480116100bb5780632afcf480146101855780633ed0eb1c146101a157806387c51459146101ca578063a5bfd16a146101f5576100dd565b806302bf321f146100e257806315d9e96b1461011f578063222ff53d14610148575b600080fd5b3480156100ee57600080fd5b5061010960048036038101906101049190611b10565b610390565b6040516101169190612180565b60405180910390f35b34801561012b57600080fd5b5061014660048036038101906101419190611c49565b610683565b005b34801561015457600080fd5b5061016f600480360381019061016a9190611c20565b610a53565b60405161017c91906122f0565b60405180910390f35b61019f600480360381019061019a9190611c20565b610a77565b005b3480156101ad57600080fd5b506101c860048036038101906101c39190611b75565b610c4f565b005b3480156101d657600080fd5b506101df610de3565b6040516101ec91906122f0565b60405180910390f35b34801561020157600080fd5b5061020a610de9565b6040516102179190612180565b60405180910390f35b61023a60048036038101906102359190611c20565b611099565b005b34801561024857600080fd5b50610263600480360381019061025e9190611b9e565b611397565b005b34801561027157600080fd5b5061028c60048036038101906102879190611b75565b611598565b60405161029c94939291906121a2565b60405180910390f35b3480156102b157600080fd5b506102cc60048036038101906102c79190611b39565b61167d565b6040516102d991906122f0565b60405180910390f35b3480156102ee57600080fd5b5061030960048036038101906103049190611c20565b6116ae565b60405161031f9a9998979695949392919061230b565b60405180910390f35b34801561033457600080fd5b5061034f600480360381019061034a9190611bdf565b6117c4565b60405161035c91906122f0565b60405180910390f35b34801561037157600080fd5b5061037a611811565b6040516103879190612165565b60405180910390f35b60606000600260008473ffffffffffffffffffffffffffffffffffffffff1673ffffffffffffffffffffffffffffffffffffffff16815260200190815260200160002090506000818054905067ffffffffffffffff81111561041b577f4e487b7100000000000000000000000000000000000000000000000000000000600052604160045260246000fd5b60405190808252806020026020018201604052801561045457816020015b610441611837565b8152602001906001900390816104395790505b50905060005b8280549050811015610678576000808483815481106104a2577f4e487b7100000000000000000000000000000000000000000000000000000000600052603260045260246000fd5b9060005260206000200154815260200190815260200160002060405180610140016040529081600082015481526020016001820160009054906101000a900473ffffffffffffffffffffffffffffffffffffffff1673ffffffffffffffffffffffffffffffffffffffff1673ffffffffffffffffffffffffffffffffffffffff168152602001600282015481526020016003820154815260200160048201548152602001600582015481526020016006820160009054906101000a900460ff1615151515815260200160078201548152602001600882018054610584906125f5565b80601f01602080910402602001604051908101604052809291908181526020018280546105b0906125f5565b80156105fd5780601f106105d2576101008083540402835291602001916105fd565b820191906000526020600020905b8154815290600101906020018083116105e057829003601f168201915b505050505081526020016009820160009054906101000a900460ff16151515158152505082828151811061065a577f4e487b7100000000000000000000000000000000000000000000000000000000600052603260045260246000fd5b6020026020010181905250808061067090612627565b91505061045a565b508092505050919050565b600081604051602001610696919061214e565b604051602081830303815290604052805190602001209050600073ffffffffffffffffffffffffffffffffffffffff166001600083815260200190815260200160002060020160019054906101000a900473ffffffffffffffffffffffffffffffffffffffff1673ffffffffffffffffffffffffffffffffffffffff1614156107f85760405180608001604052808281526020018381526020016001151581526020013373ffffffffffffffffffffffffffffffffffffffff168152506001600083815260200190815260200160002060008201518160000155602082015181600101908051906020019061078c9291906118a7565b5060408201518160020160006101000a81548160ff02191690831515021790555060608201518160020160016101000a81548173ffffffffffffffffffffffffffffffffffffffff021916908373ffffffffffffffffffffffffffffffffffffffff1602179055509050505b60006004600081548092919061080d90612627565b9190505590506040518061014001604052808281526020013373ffffffffffffffffffffffffffffffffffffffff16815260200187815260200160008152602001868152602001858152602001600115158152602001838152602001848152602001600115158152506000808381526020019081526020016000206000820151816000015560208201518160010160006101000a81548173ffffffffffffffffffffffffffffffffffffffff021916908373ffffffffffffffffffffffffffffffffffffffff16021790555060408201518160020155606082015181600301556080820151816004015560a0820151816005015560c08201518160060160006101000a81548160ff02191690831515021790555060e082015181600701556101008201518160080190805190602001906109489291906118a7565b506101208201518160090160006101000a81548160ff021916908315150217905550905050600260003373ffffffffffffffffffffffffffffffffffffffff1673ffffffffffffffffffffffffffffffffffffffff16815260200190815260200160002081908060018154018082558091505060019003906000526020600020016000909190919091505560038190806001815401808255809150506001900390600052602060002001600090919091909150553373ffffffffffffffffffffffffffffffffffffffff16817f8910ba13a55695f056e224bbbc6b65d866b12a8c2fbdf387fb853a1cca298cd788604051610a4391906122f0565b60405180910390a3505050505050565b60038181548110610a6357600080fd5b906000526020600020016000915090505481565b600080600083815260200190815260200160002090508060060160009054906101000a900460ff16610ade576040517f08c379a0000000000000000000000000000000000000000000000000000000008152600401610ad590612230565b60405180910390fd5b8060020154348260030154610af39190612480565b1115610b34576040517f08c379a0000000000000000000000000000000000000000000000000000000008152600401610b2b906122d0565b60405180910390fd5b34816003016000828254610b489190612480565b925050819055503373ffffffffffffffffffffffffffffffffffffffff16827f89728d542d77fad9fe42c7d1f032c2b85f64cf938d754183b0e95359fbfac8a134604051610b9691906122f0565b60405180910390a3806002015481600301541415610c4b578060010160009054906101000a900473ffffffffffffffffffffffffffffffffffffffff1673ffffffffffffffffffffffffffffffffffffffff166108fc82600201549081150290604051600060405180830381858888f19350505050158015610c1c573d6000803e3d6000fd5b50817f9e71d2fb732e68272b7e74ecfd14638673c1d77e19a5d390a3ffff054d57c44b60405160405180910390a25b5050565b600560009054906101000a900473ffffffffffffffffffffffffffffffffffffffff1673ffffffffffffffffffffffffffffffffffffffff163373ffffffffffffffffffffffffffffffffffffffff1614610cdf576040517f08c379a0000000000000000000000000000000000000000000000000000000008152600401610cd690612270565b60405180910390fd5b600073ffffffffffffffffffffffffffffffffffffffff166001600083815260200190815260200160002060020160019054906101000a900473ffffffffffffffffffffffffffffffffffffffff1673ffffffffffffffffffffffffffffffffffffffff161415610d85576040517f08c379a0000000000000000000000000000000000000000000000000000000008152600401610d7c90612250565b60405180910390fd5b600180600083815260200190815260200160002060020160006101000a81548160ff021916908315150217905550807f2de3d55aafe07cc57a0a749b827e4e1d55de5b5eb247649f4e8fe55310cc772360405160405180910390a250565b60045481565b6060600060038054905067ffffffffffffffff811115610e32577f4e487b7100000000000000000000000000000000000000000000000000000000600052604160045260246000fd5b604051908082528060200260200182016040528015610e6b57816020015b610e58611837565b815260200190600190039081610e505790505b50905060005b6003805490508110156110915760008060038381548110610ebb577f4e487b7100000000000000000000000000000000000000000000000000000000600052603260045260246000fd5b9060005260206000200154815260200190815260200160002060405180610140016040529081600082015481526020016001820160009054906101000a900473ffffffffffffffffffffffffffffffffffffffff1673ffffffffffffffffffffffffffffffffffffffff1673ffffffffffffffffffffffffffffffffffffffff168152602001600282015481526020016003820154815260200160048201548152602001600582015481526020016006820160009054906101000a900460ff1615151515815260200160078201548152602001600882018054610f9d906125f5565b80601f0160208091040260200160405190810160405280929190818152602001828054610fc9906125f5565b80156110165780601f10610feb57610100808354040283529160200191611016565b820191906000526020600020905b815481529060010190602001808311610ff957829003601f168201915b505050505081526020016009820160009054906101000a900460ff161515151581525050828281518110611073577f4e487b7100000000000000000000000000000000000000000000000000000000600052603260045260246000fd5b6020026020010181905250808061108990612627565b915050610e71565b508091505090565b600080600083815260200190815260200160002090508060010160009054906101000a900473ffffffffffffffffffffffffffffffffffffffff1673ffffffffffffffffffffffffffffffffffffffff163373ffffffffffffffffffffffffffffffffffffffff1614611141576040517f08c379a0000000000000000000000000000000000000000000000000000000008152600401611138906122b0565b60405180910390fd5b8060060160009054906101000a900460ff16611192576040517f08c379a000000000000000000000000000000000000000000000000000000000815260040161118990612230565b60405180910390fd5b60006113038260405180610140016040529081600082015481526020016001820160009054906101000a900473ffffffffffffffffffffffffffffffffffffffff1673ffffffffffffffffffffffffffffffffffffffff1673ffffffffffffffffffffffffffffffffffffffff168152602001600282015481526020016003820154815260200160048201548152602001600582015481526020016006820160009054906101000a900460ff1615151515815260200160078201548152602001600882018054611261906125f5565b80601f016020809104026020016040519081016040528092919081815260200182805461128d906125f5565b80156112da5780601f106112af576101008083540402835291602001916112da565b820191906000526020600020905b8154815290600101906020018083116112bd57829003601f168201915b505050505081526020016009820160009054906101000a900460ff1615151515815250506117c4565b905080341015611348576040517f08c379a000000000000000000000000000000000000000000000000000000000815260040161133f90612210565b60405180910390fd5b60008260060160006101000a81548160ff021916908315150217905550827f9a7851747cd7ffb3fe0a32caf3da48b31f27cebe131267051640f8b72fc4718660405160405180910390a2505050565b6000816040516020016113aa919061214e565b604051602081830303815290604052805190602001209050600073ffffffffffffffffffffffffffffffffffffffff166001600083815260200190815260200160002060020160019054906101000a900473ffffffffffffffffffffffffffffffffffffffff1673ffffffffffffffffffffffffffffffffffffffff1614611467576040517f08c379a000000000000000000000000000000000000000000000000000000000815260040161145e90612290565b60405180910390fd5b60405180608001604052808281526020018381526020016000151581526020013373ffffffffffffffffffffffffffffffffffffffff16815250600160008381526020019081526020016000206000820151816000015560208201518160010190805190602001906114da9291906118a7565b5060408201518160020160006101000a81548160ff02191690831515021790555060608201518160020160016101000a81548173ffffffffffffffffffffffffffffffffffffffff021916908373ffffffffffffffffffffffffffffffffffffffff1602179055509050503373ffffffffffffffffffffffffffffffffffffffff16817f01da9343563ece524b85e975162b1dee5e4f8b36b9ede54342767ebdd84e8c458460405161158c91906121ee565b60405180910390a35050565b60016020528060005260406000206000915090508060000154908060010180546115c1906125f5565b80601f01602080910402602001604051908101604052809291908181526020018280546115ed906125f5565b801561163a5780601f1061160f5761010080835404028352916020019161163a565b820191906000526020600020905b81548152906001019060200180831161161d57829003601f168201915b5050505050908060020160009054906101000a900460ff16908060020160019054906101000a900473ffffffffffffffffffffffffffffffffffffffff16905084565b6002602052816000526040600020818154811061169957600080fd5b90600052602060002001600091509150505481565b60006020528060005260406000206000915090508060000154908060010160009054906101000a900473ffffffffffffffffffffffffffffffffffffffff16908060020154908060030154908060040154908060050154908060060160009054906101000a900460ff169080600701549080600801805461172e906125f5565b80601f016020809104026020016040519081016040528092919081815260200182805461175a906125f5565b80156117a75780601f1061177c576101008083540402835291602001916117a7565b820191906000526020600020905b81548152906001019060200180831161178a57829003601f168201915b5050505050908060090160009054906101000a900460ff1690508a565b6000806104b08360a00151846080015185604001516117e39190612507565b6117ed9190612507565b6117f791906124d6565b90508083604001516118099190612480565b915050919050565b600560009054906101000a900473ffffffffffffffffffffffffffffffffffffffff1681565b60405180610140016040528060008152602001600073ffffffffffffffffffffffffffffffffffffffff1681526020016000815260200160008152602001600081526020016000815260200160001515815260200160008019168152602001606081526020016000151581525090565b8280546118b3906125f5565b90600052602060002090601f0160209004810192826118d5576000855561191c565b82601f106118ee57805160ff191683800117855561191c565b8280016001018555821561191c579182015b8281111561191b578251825591602001919060010190611900565b5b509050611929919061192d565b5090565b5b8082111561194657600081600090555060010161192e565b5090565b600061195d611958846123df565b6123ae565b90508281526020810184848401111561197557600080fd5b6119808482856125b3565b509392505050565b6000813590506119978161273d565b92915050565b6000813590506119ac81612754565b92915050565b6000813590506119c18161276b565b92915050565b600082601f8301126119d857600080fd5b81356119e884826020860161194a565b91505092915050565b60006101408284031215611a0457600080fd5b611a0f6101406123ae565b90506000611a1f84828501611afb565b6000830152506020611a3384828501611988565b6020830152506040611a4784828501611afb565b6040830152506060611a5b84828501611afb565b6060830152506080611a6f84828501611afb565b60808301525060a0611a8384828501611afb565b60a08301525060c0611a978482850161199d565b60c08301525060e0611aab848285016119b2565b60e08301525061010082013567ffffffffffffffff811115611acc57600080fd5b611ad8848285016119c7565b61010083015250610120611aee8482850161199d565b6101208301525092915050565b600081359050611b0a81612782565b92915050565b600060208284031215611b2257600080fd5b6000611b3084828501611988565b91505092915050565b60008060408385031215611b4c57600080fd5b6000611b5a85828601611988565b9250506020611b6b85828601611afb565b9150509250929050565b600060208284031215611b8757600080fd5b6000611b95848285016119b2565b91505092915050565b600060208284031215611bb057600080fd5b600082013567ffffffffffffffff811115611bca57600080fd5b611bd6848285016119c7565b91505092915050565b600060208284031215611bf157600080fd5b600082013567ffffffffffffffff811115611c0b57600080fd5b611c17848285016119f1565b91505092915050565b600060208284031215611c3257600080fd5b6000611c4084828501611afb565b91505092915050565b60008060008060808587031215611c5f57600080fd5b6000611c6d87828801611afb565b9450506020611c7e87828801611afb565b9350506040611c8f87828801611afb565b925050606085013567ffffffffffffffff811115611cac57600080fd5b611cb8878288016119c7565b91505092959194509250565b6000611cd08383612056565b905092915050565b611ce181612561565b82525050565b611cf081612561565b82525050565b6000611d018261241f565b611d0b8185612442565b935083602082028501611d1d8561240f565b8060005b85811015611d595784840389528151611d3a8582611cc4565b9450611d4583612435565b925060208a01995050600181019050611d21565b50829750879550505050505092915050565b611d7481612573565b82525050565b611d8381612573565b82525050565b611d928161257f565b82525050565b611da18161257f565b82525050565b6000611db28261242a565b611dbc8185612453565b9350611dcc8185602086016125c2565b611dd58161272c565b840191505092915050565b6000611deb8261242a565b611df58185612464565b9350611e058185602086016125c2565b611e0e8161272c565b840191505092915050565b6000611e248261242a565b611e2e8185612475565b9350611e3e8185602086016125c2565b80840191505092915050565b6000611e57601d83612464565b91507f496e73756666696369656e742072657061796d656e7420616d6f756e740000006000830152602082019050919050565b6000611e97601283612464565b91507f4c6f616e206973206e6f742061637469766500000000000000000000000000006000830152602082019050919050565b6000611ed7601783612464565b91507f50726f706572747920646f6573206e6f742065786973740000000000000000006000830152602082019050919050565b6000611f17602283612464565b91507f4f6e6c792061646d696e2063616e20706572666f726d2074686973206163746960008301527f6f6e0000000000000000000000000000000000000000000000000000000000006020830152604082019050919050565b6000611f7d601783612464565b91507f50726f706572747920616c7265616479206578697374730000000000000000006000830152602082019050919050565b6000611fbd601783612464565b91507f4f6e6c7920626f72726f7765722063616e2072657061790000000000000000006000830152602082019050919050565b6000611ffd602383612464565b91507f496e766573746d656e7420776f756c6420657863656564206c6f616e20616d6f60008301527f756e7400000000000000000000000000000000000000000000000000000000006020830152604082019050919050565b60006101408301600083015161206f6000860182612130565b5060208301516120826020860182611cd8565b5060408301516120956040860182612130565b5060608301516120a86060860182612130565b5060808301516120bb6080860182612130565b5060a08301516120ce60a0860182612130565b5060c08301516120e160c0860182611d6b565b5060e08301516120f460e0860182611d89565b5061010083015184820361010086015261210e8282611da7565b915050610120830151612125610120860182611d6b565b508091505092915050565b612139816125a9565b82525050565b612148816125a9565b82525050565b600061215a8284611e19565b915081905092915050565b600060208201905061217a6000830184611ce7565b92915050565b6000602082019050818103600083015261219a8184611cf6565b905092915050565b60006080820190506121b76000830187611d98565b81810360208301526121c98186611de0565b90506121d86040830185611d7a565b6121e56060830184611ce7565b95945050505050565b600060208201905081810360008301526122088184611de0565b905092915050565b6000602082019050818103600083015261222981611e4a565b9050919050565b6000602082019050818103600083015261224981611e8a565b9050919050565b6000602082019050818103600083015261226981611eca565b9050919050565b6000602082019050818103600083015261228981611f0a565b9050919050565b600060208201905081810360008301526122a981611f70565b9050919050565b600060208201905081810360008301526122c981611fb0565b9050919050565b600060208201905081810360008301526122e981611ff0565b9050919050565b6000602082019050612305600083018461213f565b92915050565b600061014082019050612321600083018d61213f565b61232e602083018c611ce7565b61233b604083018b61213f565b612348606083018a61213f565b612355608083018961213f565b61236260a083018861213f565b61236f60c0830187611d7a565b61237c60e0830186611d98565b81810361010083015261238f8185611de0565b905061239f610120830184611d7a565b9b9a5050505050505050505050565b6000604051905081810181811067ffffffffffffffff821117156123d5576123d46126fd565b5b8060405250919050565b600067ffffffffffffffff8211156123fa576123f96126fd565b5b601f19601f8301169050602081019050919050565b6000819050602082019050919050565b600081519050919050565b600081519050919050565b6000602082019050919050565b600082825260208201905092915050565b600082825260208201905092915050565b600082825260208201905092915050565b600081905092915050565b600061248b826125a9565b9150612496836125a9565b9250827fffffffffffffffffffffffffffffffffffffffffffffffffffffffffffffffff038211156124cb576124ca612670565b5b828201905092915050565b60006124e1826125a9565b91506124ec836125a9565b9250826124fc576124fb61269f565b5b828204905092915050565b6000612512826125a9565b915061251d836125a9565b9250817fffffffffffffffffffffffffffffffffffffffffffffffffffffffffffffffff048311821515161561255657612555612670565b5b828202905092915050565b600061256c82612589565b9050919050565b60008115159050919050565b6000819050919050565b600073ffffffffffffffffffffffffffffffffffffffff82169050919050565b6000819050919050565b82818337600083830152505050565b60005b838110156125e05780820151818401526020810190506125c5565b838111156125ef576000848401525b50505050565b6000600282049050600182168061260d57607f821691505b60208210811415612621576126206126ce565b5b50919050565b6000612632826125a9565b91507fffffffffffffffffffffffffffffffffffffffffffffffffffffffffffffffff82141561266557612664612670565b5b600182019050919050565b7f4e487b7100000000000000000000000000000000000000000000000000000000600052601160045260246000fd5b7f4e487b7100000000000000000000000000000000000000000000000000000000600052601260045260246000fd5b7f4e487b7100000000000000000000000000000000000000000000000000000000600052602260045260246000fd5b7f4e487b7100000000000000000000000000000000000000000000000000000000600052604160045260246000fd5b6000601f19601f8301169050919050565b61274681612561565b811461275157600080fd5b50565b61275d81612573565b811461276857600080fd5b50565b6127748161257f565b811461277f57600080fd5b50565b61278b816125a9565b811461279657600080fd5b5056fea264697066735822122011159338da8241d9b7d71f5a465e0ab1cf37a5bfbf8acf7b6543acbe1390cb4964736f6c63430008000033",
  "linkReferences": {},
  "deployedLinkReferences": {}
}