{
  "_format": "hh-sol-artifact-1",
  "contractName": "RealEstateLending",
  "sourceName": "contracts/RealEstateLending.sol",
  "abi": [
    {
      "anonymous": false,
      "inputs": [
        {
          "indexed": false,
          "internalType": "uint256",
          "name": "loanId",
          "type": "uint256"
        },
        {
          "indexed": false,
          "internalType": "address",
          "name": "lender",
          "type": "address"
        },
        {
          "indexed": false,
          "internalType": "uint256",
          "name": "amount",
          "type": "uint256"
        }
      ],
      "name": "InvestmentMade",
      "type": "event"
    },
    {
      "anonymous": false,
      "inputs": [
        {
          "indexed": false,
          "internalType": "uint256",
          "name": "loanId",
          "type": "uint256"
        },
        {
          "indexed": false,
          "internalType": "address",
          "name": "borrower",
          "type": "address"
        },
        {
          "indexed": false,
          "internalType": "uint256",
          "name": "amount",
          "type": "uint256"
        }
      ],
      "name": "LoanCreated",
      "type": "event"
    },
    {
      "inputs": [
        {
          "internalType": "uint256",
          "name": "_amount",
          "type": "uint256"
        },
        {
          "internalType": "uint256",
          "name": "_interestRate",
          "type": "uint256"
        },
        {
          "internalType": "uint256",
          "name": "_duration",
          "type": "uint256"
        }
      ],
      "name": "createLoan",
      "outputs": [],
      "stateMutability": "nonpayable",
      "type": "function"
    },
    {
      "inputs": [
        {
          "internalType": "uint256",
          "name": "_loanId",
          "type": "uint256"
        }
      ],
      "name": "invest",
      "outputs": [],
      "stateMutability": "payable",
      "type": "function"
    },
    {
      "inputs": [],
      "name": "loanCounter",
      "outputs": [
        {
          "internalType": "uint256",
          "name": "",
          "type": "uint256"
        }
      ],
      "stateMutability": "view",
      "type": "function"
    },
    {
      "inputs": [
        {
          "internalType": "uint256",
          "name": "",
          "type": "uint256"
        }
      ],
      "name": "loans",
      "outputs": [
        {
          "internalType": "uint256",
          "name": "id",
          "type": "uint256"
        },
        {
          "internalType": "address",
          "name": "borrower",
          "type": "address"
        },
        {
          "internalType": "uint256",
          "name": "amount",
          "type": "uint256"
        },
        {
          "internalType": "uint256",
          "name": "fundedAmount",
          "type": "uint256"
        },
        {
          "internalType": "uint256",
          "name": "interestRate",
          "type": "uint256"
        },
        {
          "internalType": "uint256",
          "name": "duration",
          "type": "uint256"
        },
        {
          "internalType": "bool",
          "name": "isActive",
          "type": "bool"
        }
      ],
      "stateMutability": "view",
      "type": "function"
    }
  ],
  "bytecode": "0x608060405234801561001057600080fd5b50610846806100206000396000f3fe60806040526004361061003f5760003560e01c80632afcf4801461004457806334d9289e14610060578063904b513b1461008b578063e1ec3c68146100b4575b600080fd5b61005e60048036038101906100599190610486565b6100f7565b005b34801561006c57600080fd5b50610075610303565b6040516100829190610611565b60405180910390f35b34801561009757600080fd5b506100b260048036038101906100ad91906104af565b610309565b005b3480156100c057600080fd5b506100db60048036038101906100d69190610486565b610402565b6040516100ee9796959493929190610663565b60405180910390f35b600080600083815260200190815260200160002090508060060160009054906101000a900460ff1661015e576040517f08c379a0000000000000000000000000000000000000000000000000000000008152600401610155906105d1565b60405180910390fd5b806002015434826003015461017391906106e3565b11156101b4576040517f08c379a00000000000000000000000000000000000000000000000000000000081526004016101ab906105f1565b60405180910390fd5b348160070160003373ffffffffffffffffffffffffffffffffffffffff1673ffffffffffffffffffffffffffffffffffffffff168152602001908152602001600020600082825461020591906106e3565b925050819055503481600301600082825461022091906106e3565b925050819055508060020154816003015414156102c45760008160060160006101000a81548160ff0219169083151502179055508060010160009054906101000a900473ffffffffffffffffffffffffffffffffffffffff1673ffffffffffffffffffffffffffffffffffffffff166108fc82600201549081150290604051600060405180830381858888f193505050501580156102c2573d6000803e3d6000fd5b505b7f89728d542d77fad9fe42c7d1f032c2b85f64cf938d754183b0e95359fbfac8a18233346040516102f79392919061062c565b60405180910390a15050565b60015481565b6001600081548092919061031c90610781565b91905055506000806000600154815260200190815260200160002090506001548160000181905550338160010160006101000a81548173ffffffffffffffffffffffffffffffffffffffff021916908373ffffffffffffffffffffffffffffffffffffffff16021790555083816002018190555082816004018190555081816005018190555060018160060160006101000a81548160ff0219169083151502179055507f8910ba13a55695f056e224bbbc6b65d866b12a8c2fbdf387fb853a1cca298cd760015433866040516103f49392919061062c565b60405180910390a150505050565b60006020528060005260406000206000915090508060000154908060010160009054906101000a900473ffffffffffffffffffffffffffffffffffffffff16908060020154908060030154908060040154908060050154908060060160009054906101000a900460ff16905087565b600081359050610480816107f9565b92915050565b60006020828403121561049857600080fd5b60006104a684828501610471565b91505092915050565b6000806000606084860312156104c457600080fd5b60006104d286828701610471565b93505060206104e386828701610471565b92505060406104f486828701610471565b9150509250925092565b61050781610739565b82525050565b6105168161074b565b82525050565b60006105296012836106d2565b91507f4c6f616e206973206e6f742061637469766500000000000000000000000000006000830152602082019050919050565b60006105696022836106d2565b91507f496e766573746d656e74206578636565647320726571756972656420616d6f7560008301527f6e740000000000000000000000000000000000000000000000000000000000006020830152604082019050919050565b6105cb81610777565b82525050565b600060208201905081810360008301526105ea8161051c565b9050919050565b6000602082019050818103600083015261060a8161055c565b9050919050565b600060208201905061062660008301846105c2565b92915050565b600060608201905061064160008301866105c2565b61064e60208301856104fe565b61065b60408301846105c2565b949350505050565b600060e082019050610678600083018a6105c2565b61068560208301896104fe565b61069260408301886105c2565b61069f60608301876105c2565b6106ac60808301866105c2565b6106b960a08301856105c2565b6106c660c083018461050d565b98975050505050505050565b600082825260208201905092915050565b60006106ee82610777565b91506106f983610777565b9250827fffffffffffffffffffffffffffffffffffffffffffffffffffffffffffffffff0382111561072e5761072d6107ca565b5b828201905092915050565b600061074482610757565b9050919050565b60008115159050919050565b600073ffffffffffffffffffffffffffffffffffffffff82169050919050565b6000819050919050565b600061078c82610777565b91507fffffffffffffffffffffffffffffffffffffffffffffffffffffffffffffffff8214156107bf576107be6107ca565b5b600182019050919050565b7f4e487b7100000000000000000000000000000000000000000000000000000000600052601160045260246000fd5b61080281610777565b811461080d57600080fd5b5056fea2646970667358221220e4fef2ad78be9858c81033a3272f4c35ce43efeca5c40b271f922dbe07a0087c64736f6c63430008000033",
  "linkReferences": {},
  "deployedLinkReferences": {}
}